{
	"DataLocations.sol": {
		"DataLocations": {
			"abi": [
				{
					"inputs": [
						{
							"internalType": "uint256",
							"name": "",
							"type": "uint256"
						}
					],
					"name": "arr",
					"outputs": [
						{
							"internalType": "uint256",
							"name": "",
							"type": "uint256"
						}
					],
					"stateMutability": "view",
					"type": "function"
				},
				{
					"inputs": [],
					"name": "f",
					"outputs": [
						{
							"internalType": "uint256",
							"name": "",
							"type": "uint256"
						},
						{
							"components": [
								{
									"internalType": "uint256",
									"name": "foo",
									"type": "uint256"
								}
							],
							"internalType": "struct DataLocations.MyStruct",
							"name": "",
							"type": "tuple"
						}
					],
					"stateMutability": "nonpayable",
					"type": "function"
				},
				{
					"inputs": [
						{
							"internalType": "uint256[]",
							"name": "_arr",
							"type": "uint256[]"
						}
					],
					"name": "g",
					"outputs": [
						{
							"internalType": "uint256[]",
							"name": "",
							"type": "uint256[]"
						}
					],
					"stateMutability": "nonpayable",
					"type": "function"
				},
				{
					"inputs": [
						{
							"internalType": "uint256[]",
							"name": "_arr",
							"type": "uint256[]"
						}
					],
					"name": "h",
					"outputs": [],
					"stateMutability": "nonpayable",
					"type": "function"
				}
			],
			"devdoc": {
				"kind": "dev",
				"methods": {},
				"version": 1
			},
			"evm": {
				"assembly": "    /* \"DataLocations.sol\":61:1165  contract DataLocations {... */\n  mstore(0x40, 0x80)\n  callvalue\n  dup1\n  iszero\n  tag_1\n  jumpi\n  0x00\n  dup1\n  revert\ntag_1:\n  pop\n  dataSize(sub_0)\n  dup1\n  dataOffset(sub_0)\n  0x00\n  codecopy\n  0x00\n  return\nstop\n\nsub_0: assembly {\n        /* \"DataLocations.sol\":61:1165  contract DataLocations {... */\n      mstore(0x40, 0x80)\n      callvalue\n      dup1\n      iszero\n      tag_1\n      jumpi\n      0x00\n      dup1\n      revert\n    tag_1:\n      pop\n      jumpi(tag_2, lt(calldatasize, 0x04))\n      shr(0xe0, calldataload(0x00))\n      dup1\n      0x26121ff0\n      eq\n      tag_3\n      jumpi\n      dup1\n      0x40dcbb08\n      eq\n      tag_4\n      jumpi\n      dup1\n      0x71e5ee5f\n      eq\n      tag_5\n      jumpi\n      dup1\n      0xbaf71609\n      eq\n      tag_6\n      jumpi\n    tag_2:\n      0x00\n      dup1\n      revert\n        /* \"DataLocations.sol\":259:676  function f() public returns (uint256,MyStruct memory){... */\n    tag_3:\n      tag_7\n      tag_8\n      jump\t// in\n    tag_7:\n      mload(0x40)\n      tag_9\n      swap3\n      swap2\n      swap1\n      tag_10\n      jump\t// in\n    tag_9:\n      mload(0x40)\n      dup1\n      swap2\n      sub\n      swap1\n      return\n        /* \"DataLocations.sol\":1064:1162  function h(uint256[] calldata _arr) external {... */\n    tag_4:\n      tag_11\n      0x04\n      dup1\n      calldatasize\n      sub\n      dup2\n      add\n      swap1\n      tag_12\n      swap2\n      swap1\n      tag_13\n      jump\t// in\n    tag_12:\n      tag_14\n      jump\t// in\n    tag_11:\n      stop\n        /* \"DataLocations.sol\":91:111  uint256[] public arr */\n    tag_5:\n      tag_15\n      0x04\n      dup1\n      calldatasize\n      sub\n      dup2\n      add\n      swap1\n      tag_16\n      swap2\n      swap1\n      tag_17\n      jump\t// in\n    tag_16:\n      tag_18\n      jump\t// in\n    tag_15:\n      mload(0x40)\n      tag_19\n      swap2\n      swap1\n      tag_20\n      jump\t// in\n    tag_19:\n      mload(0x40)\n      dup1\n      swap2\n      sub\n      swap1\n      return\n        /* \"DataLocations.sol\":937:1056  function g(uint256[] memory _arr) public returns (uint256[] memory) {... */\n    tag_6:\n      tag_21\n      0x04\n      dup1\n      calldatasize\n      sub\n      dup2\n      add\n      swap1\n      tag_22\n      swap2\n      swap1\n      tag_23\n      jump\t// in\n    tag_22:\n      tag_24\n      jump\t// in\n    tag_21:\n      mload(0x40)\n      tag_25\n      swap2\n      swap1\n      tag_26\n      jump\t// in\n    tag_25:\n      mload(0x40)\n      dup1\n      swap2\n      sub\n      swap1\n      return\n        /* \"DataLocations.sol\":259:676  function f() public returns (uint256,MyStruct memory){... */\n    tag_8:\n        /* \"DataLocations.sol\":288:295  uint256 */\n      0x00\n        /* \"DataLocations.sol\":296:311  MyStruct memory */\n      tag_27\n      tag_28\n      jump\t// in\n    tag_27:\n        /* \"DataLocations.sol\":364:390  _f(arr, map, myStructs[1]) */\n      tag_30\n        /* \"DataLocations.sol\":367:370  arr */\n      0x00\n        /* \"DataLocations.sol\":372:375  map */\n      0x01\n        /* \"DataLocations.sol\":377:386  myStructs */\n      0x02\n        /* \"DataLocations.sol\":377:389  myStructs[1] */\n      0x00\n        /* \"DataLocations.sol\":387:388  1 */\n      0x01\n        /* \"DataLocations.sol\":377:389  myStructs[1] */\n      dup2\n      mstore\n      0x20\n      add\n      swap1\n      dup2\n      mstore\n      0x20\n      add\n      0x00\n      keccak256\n        /* \"DataLocations.sol\":364:366  _f */\n      tag_31\n        /* \"DataLocations.sol\":364:390  _f(arr, map, myStructs[1]) */\n      jump\t// in\n    tag_30:\n        /* \"DataLocations.sol\":443:468  MyStruct storage myStruct */\n      0x00\n        /* \"DataLocations.sol\":471:480  myStructs */\n      0x02\n        /* \"DataLocations.sol\":471:483  myStructs[1] */\n      0x00\n        /* \"DataLocations.sol\":481:482  1 */\n      0x01\n        /* \"DataLocations.sol\":471:483  myStructs[1] */\n      dup2\n      mstore\n      0x20\n      add\n      swap1\n      dup2\n      mstore\n      0x20\n      add\n      0x00\n      keccak256\n        /* \"DataLocations.sol\":443:483  MyStruct storage myStruct = myStructs[1] */\n      swap1\n      pop\n        /* \"DataLocations.sol\":509:512  123 */\n      0x7b\n        /* \"DataLocations.sol\":494:502  myStruct */\n      dup2\n        /* \"DataLocations.sol\":494:506  myStruct.foo */\n      0x00\n      add\n        /* \"DataLocations.sol\":494:512  myStruct.foo = 123 */\n      dup2\n      swap1\n      sstore\n      pop\n        /* \"DataLocations.sol\":583:610  MyStruct memory myMemStruct */\n      0x00\n        /* \"DataLocations.sol\":613:624  MyStruct(0) */\n      mload(0x40)\n      dup1\n      0x20\n      add\n      0x40\n      mstore\n      dup1\n        /* \"DataLocations.sol\":622:623  0 */\n      0x00\n        /* \"DataLocations.sol\":613:624  MyStruct(0) */\n      dup2\n      mstore\n      pop\n        /* \"DataLocations.sol\":583:624  MyStruct memory myMemStruct = MyStruct(0) */\n      swap1\n      pop\n        /* \"DataLocations.sol\":643:651  myStruct */\n      dup2\n        /* \"DataLocations.sol\":643:655  myStruct.foo */\n      0x00\n      add\n      sload\n        /* \"DataLocations.sol\":656:667  myMemStruct */\n      dup2\n        /* \"DataLocations.sol\":635:668  return (myStruct.foo,myMemStruct) */\n      swap4\n      pop\n      swap4\n      pop\n      pop\n      pop\n        /* \"DataLocations.sol\":259:676  function f() public returns (uint256,MyStruct memory){... */\n      swap1\n      swap2\n      jump\t// out\n        /* \"DataLocations.sol\":1064:1162  function h(uint256[] calldata _arr) external {... */\n    tag_14:\n      pop\n      pop\n      jump\t// out\n        /* \"DataLocations.sol\":91:111  uint256[] public arr */\n    tag_18:\n      0x00\n      dup2\n      dup2\n      sload\n      dup2\n      lt\n      tag_33\n      jumpi\n      0x00\n      dup1\n      revert\n    tag_33:\n      swap1\n      0x00\n      mstore\n      keccak256(0x00, 0x20)\n      add\n      0x00\n      swap2\n      pop\n      swap1\n      pop\n      sload\n      dup2\n      jump\t// out\n        /* \"DataLocations.sol\":937:1056  function g(uint256[] memory _arr) public returns (uint256[] memory) {... */\n    tag_24:\n        /* \"DataLocations.sol\":987:1003  uint256[] memory */\n      0x60\n        /* \"DataLocations.sol\":937:1056  function g(uint256[] memory _arr) public returns (uint256[] memory) {... */\n      swap2\n      swap1\n      pop\n      jump\t// out\n        /* \"DataLocations.sol\":684:889  function _f(... */\n    tag_31:\n      pop\n      pop\n      pop\n      jump\t// out\n    tag_28:\n      mload(0x40)\n      dup1\n      0x20\n      add\n      0x40\n      mstore\n      dup1\n      0x00\n      dup2\n      mstore\n      pop\n      swap1\n      jump\t// out\n        /* \"#utility.yul\":7:84   */\n    tag_37:\n        /* \"#utility.yul\":44:51   */\n      0x00\n        /* \"#utility.yul\":73:78   */\n      dup2\n        /* \"#utility.yul\":62:78   */\n      swap1\n      pop\n        /* \"#utility.yul\":7:84   */\n      swap2\n      swap1\n      pop\n      jump\t// out\n        /* \"#utility.yul\":90:208   */\n    tag_38:\n        /* \"#utility.yul\":177:201   */\n      tag_66\n        /* \"#utility.yul\":195:200   */\n      dup2\n        /* \"#utility.yul\":177:201   */\n      tag_37\n      jump\t// in\n    tag_66:\n        /* \"#utility.yul\":172:175   */\n      dup3\n        /* \"#utility.yul\":165:202   */\n      mstore\n        /* \"#utility.yul\":90:208   */\n      pop\n      pop\n      jump\t// out\n        /* \"#utility.yul\":214:322   */\n    tag_39:\n        /* \"#utility.yul\":291:315   */\n      tag_68\n        /* \"#utility.yul\":309:314   */\n      dup2\n        /* \"#utility.yul\":291:315   */\n      tag_37\n      jump\t// in\n    tag_68:\n        /* \"#utility.yul\":286:289   */\n      dup3\n        /* \"#utility.yul\":279:316   */\n      mstore\n        /* \"#utility.yul\":214:322   */\n      pop\n      pop\n      jump\t// out\n        /* \"#utility.yul\":398:728   */\n    tag_40:\n        /* \"#utility.yul\":543:547   */\n      0x20\n        /* \"#utility.yul\":538:541   */\n      dup3\n        /* \"#utility.yul\":534:548   */\n      add\n        /* \"#utility.yul\":629:633   */\n      0x00\n        /* \"#utility.yul\":622:627   */\n      dup3\n        /* \"#utility.yul\":618:634   */\n      add\n        /* \"#utility.yul\":612:635   */\n      mload\n        /* \"#utility.yul\":648:711   */\n      tag_70\n        /* \"#utility.yul\":705:709   */\n      0x00\n        /* \"#utility.yul\":700:703   */\n      dup6\n        /* \"#utility.yul\":696:710   */\n      add\n        /* \"#utility.yul\":682:694   */\n      dup3\n        /* \"#utility.yul\":648:711   */\n      tag_39\n      jump\t// in\n    tag_70:\n        /* \"#utility.yul\":558:721   */\n      pop\n        /* \"#utility.yul\":512:728   */\n      pop\n        /* \"#utility.yul\":398:728   */\n      pop\n      pop\n      jump\t// out\n        /* \"#utility.yul\":734:1162   */\n    tag_10:\n        /* \"#utility.yul\":903:907   */\n      0x00\n        /* \"#utility.yul\":941:943   */\n      0x40\n        /* \"#utility.yul\":930:939   */\n      dup3\n        /* \"#utility.yul\":926:944   */\n      add\n        /* \"#utility.yul\":918:944   */\n      swap1\n      pop\n        /* \"#utility.yul\":954:1025   */\n      tag_72\n        /* \"#utility.yul\":1022:1023   */\n      0x00\n        /* \"#utility.yul\":1011:1020   */\n      dup4\n        /* \"#utility.yul\":1007:1024   */\n      add\n        /* \"#utility.yul\":998:1004   */\n      dup6\n        /* \"#utility.yul\":954:1025   */\n      tag_38\n      jump\t// in\n    tag_72:\n        /* \"#utility.yul\":1035:1155   */\n      tag_73\n        /* \"#utility.yul\":1151:1153   */\n      0x20\n        /* \"#utility.yul\":1140:1149   */\n      dup4\n        /* \"#utility.yul\":1136:1154   */\n      add\n        /* \"#utility.yul\":1127:1133   */\n      dup5\n        /* \"#utility.yul\":1035:1155   */\n      tag_40\n      jump\t// in\n    tag_73:\n        /* \"#utility.yul\":734:1162   */\n      swap4\n      swap3\n      pop\n      pop\n      pop\n      jump\t// out\n        /* \"#utility.yul\":1168:1243   */\n    tag_41:\n        /* \"#utility.yul\":1201:1207   */\n      0x00\n        /* \"#utility.yul\":1234:1236   */\n      0x40\n        /* \"#utility.yul\":1228:1237   */\n      mload\n        /* \"#utility.yul\":1218:1237   */\n      swap1\n      pop\n        /* \"#utility.yul\":1168:1243   */\n      swap1\n      jump\t// out\n        /* \"#utility.yul\":1249:1366   */\n    tag_42:\n        /* \"#utility.yul\":1358:1359   */\n      0x00\n        /* \"#utility.yul\":1355:1356   */\n      dup1\n        /* \"#utility.yul\":1348:1360   */\n      revert\n        /* \"#utility.yul\":1372:1489   */\n    tag_43:\n        /* \"#utility.yul\":1481:1482   */\n      0x00\n        /* \"#utility.yul\":1478:1479   */\n      dup1\n        /* \"#utility.yul\":1471:1483   */\n      revert\n        /* \"#utility.yul\":1495:1612   */\n    tag_44:\n        /* \"#utility.yul\":1604:1605   */\n      0x00\n        /* \"#utility.yul\":1601:1602   */\n      dup1\n        /* \"#utility.yul\":1594:1606   */\n      revert\n        /* \"#utility.yul\":1618:1735   */\n    tag_45:\n        /* \"#utility.yul\":1727:1728   */\n      0x00\n        /* \"#utility.yul\":1724:1725   */\n      dup1\n        /* \"#utility.yul\":1717:1729   */\n      revert\n        /* \"#utility.yul\":1741:1858   */\n    tag_46:\n        /* \"#utility.yul\":1850:1851   */\n      0x00\n        /* \"#utility.yul\":1847:1848   */\n      dup1\n        /* \"#utility.yul\":1840:1852   */\n      revert\n        /* \"#utility.yul\":1881:2449   */\n    tag_47:\n        /* \"#utility.yul\":1954:1962   */\n      0x00\n        /* \"#utility.yul\":1964:1970   */\n      dup1\n        /* \"#utility.yul\":2014:2017   */\n      dup4\n        /* \"#utility.yul\":2007:2011   */\n      0x1f\n        /* \"#utility.yul\":1999:2005   */\n      dup5\n        /* \"#utility.yul\":1995:2012   */\n      add\n        /* \"#utility.yul\":1991:2018   */\n      slt\n        /* \"#utility.yul\":1981:2103   */\n      tag_81\n      jumpi\n        /* \"#utility.yul\":2022:2101   */\n      tag_82\n      tag_44\n      jump\t// in\n    tag_82:\n        /* \"#utility.yul\":1981:2103   */\n    tag_81:\n        /* \"#utility.yul\":2135:2141   */\n      dup3\n        /* \"#utility.yul\":2122:2142   */\n      calldataload\n        /* \"#utility.yul\":2112:2142   */\n      swap1\n      pop\n        /* \"#utility.yul\":2165:2183   */\n      0xffffffffffffffff\n        /* \"#utility.yul\":2157:2163   */\n      dup2\n        /* \"#utility.yul\":2154:2184   */\n      gt\n        /* \"#utility.yul\":2151:2268   */\n      iszero\n      tag_83\n      jumpi\n        /* \"#utility.yul\":2187:2266   */\n      tag_84\n      tag_45\n      jump\t// in\n    tag_84:\n        /* \"#utility.yul\":2151:2268   */\n    tag_83:\n        /* \"#utility.yul\":2301:2305   */\n      0x20\n        /* \"#utility.yul\":2293:2299   */\n      dup4\n        /* \"#utility.yul\":2289:2306   */\n      add\n        /* \"#utility.yul\":2277:2306   */\n      swap2\n      pop\n        /* \"#utility.yul\":2355:2358   */\n      dup4\n        /* \"#utility.yul\":2347:2351   */\n      0x20\n        /* \"#utility.yul\":2339:2345   */\n      dup3\n        /* \"#utility.yul\":2335:2352   */\n      mul\n        /* \"#utility.yul\":2325:2333   */\n      dup4\n        /* \"#utility.yul\":2321:2353   */\n      add\n        /* \"#utility.yul\":2318:2359   */\n      gt\n        /* \"#utility.yul\":2315:2443   */\n      iszero\n      tag_85\n      jumpi\n        /* \"#utility.yul\":2362:2441   */\n      tag_86\n      tag_46\n      jump\t// in\n    tag_86:\n        /* \"#utility.yul\":2315:2443   */\n    tag_85:\n        /* \"#utility.yul\":1881:2449   */\n      swap3\n      pop\n      swap3\n      swap1\n      pop\n      jump\t// out\n        /* \"#utility.yul\":2455:3014   */\n    tag_13:\n        /* \"#utility.yul\":2541:2547   */\n      0x00\n        /* \"#utility.yul\":2549:2555   */\n      dup1\n        /* \"#utility.yul\":2598:2600   */\n      0x20\n        /* \"#utility.yul\":2586:2595   */\n      dup4\n        /* \"#utility.yul\":2577:2584   */\n      dup6\n        /* \"#utility.yul\":2573:2596   */\n      sub\n        /* \"#utility.yul\":2569:2601   */\n      slt\n        /* \"#utility.yul\":2566:2685   */\n      iszero\n      tag_88\n      jumpi\n        /* \"#utility.yul\":2604:2683   */\n      tag_89\n      tag_42\n      jump\t// in\n    tag_89:\n        /* \"#utility.yul\":2566:2685   */\n    tag_88:\n        /* \"#utility.yul\":2752:2753   */\n      0x00\n        /* \"#utility.yul\":2741:2750   */\n      dup4\n        /* \"#utility.yul\":2737:2754   */\n      add\n        /* \"#utility.yul\":2724:2755   */\n      calldataload\n        /* \"#utility.yul\":2782:2800   */\n      0xffffffffffffffff\n        /* \"#utility.yul\":2774:2780   */\n      dup2\n        /* \"#utility.yul\":2771:2801   */\n      gt\n        /* \"#utility.yul\":2768:2885   */\n      iszero\n      tag_90\n      jumpi\n        /* \"#utility.yul\":2804:2883   */\n      tag_91\n      tag_43\n      jump\t// in\n    tag_91:\n        /* \"#utility.yul\":2768:2885   */\n    tag_90:\n        /* \"#utility.yul\":2917:2997   */\n      tag_92\n        /* \"#utility.yul\":2989:2996   */\n      dup6\n        /* \"#utility.yul\":2980:2986   */\n      dup3\n        /* \"#utility.yul\":2969:2978   */\n      dup7\n        /* \"#utility.yul\":2965:2987   */\n      add\n        /* \"#utility.yul\":2917:2997   */\n      tag_47\n      jump\t// in\n    tag_92:\n        /* \"#utility.yul\":2899:2997   */\n      swap3\n      pop\n      swap3\n      pop\n        /* \"#utility.yul\":2695:3007   */\n      pop\n        /* \"#utility.yul\":2455:3014   */\n      swap3\n      pop\n      swap3\n      swap1\n      pop\n      jump\t// out\n        /* \"#utility.yul\":3020:3142   */\n    tag_48:\n        /* \"#utility.yul\":3093:3117   */\n      tag_94\n        /* \"#utility.yul\":3111:3116   */\n      dup2\n        /* \"#utility.yul\":3093:3117   */\n      tag_37\n      jump\t// in\n    tag_94:\n        /* \"#utility.yul\":3086:3091   */\n      dup2\n        /* \"#utility.yul\":3083:3118   */\n      eq\n        /* \"#utility.yul\":3073:3136   */\n      tag_95\n      jumpi\n        /* \"#utility.yul\":3132:3133   */\n      0x00\n        /* \"#utility.yul\":3129:3130   */\n      dup1\n        /* \"#utility.yul\":3122:3134   */\n      revert\n        /* \"#utility.yul\":3073:3136   */\n    tag_95:\n        /* \"#utility.yul\":3020:3142   */\n      pop\n      jump\t// out\n        /* \"#utility.yul\":3148:3287   */\n    tag_49:\n        /* \"#utility.yul\":3194:3199   */\n      0x00\n        /* \"#utility.yul\":3232:3238   */\n      dup2\n        /* \"#utility.yul\":3219:3239   */\n      calldataload\n        /* \"#utility.yul\":3210:3239   */\n      swap1\n      pop\n        /* \"#utility.yul\":3248:3281   */\n      tag_97\n        /* \"#utility.yul\":3275:3280   */\n      dup2\n        /* \"#utility.yul\":3248:3281   */\n      tag_48\n      jump\t// in\n    tag_97:\n        /* \"#utility.yul\":3148:3287   */\n      swap3\n      swap2\n      pop\n      pop\n      jump\t// out\n        /* \"#utility.yul\":3293:3622   */\n    tag_17:\n        /* \"#utility.yul\":3352:3358   */\n      0x00\n        /* \"#utility.yul\":3401:3403   */\n      0x20\n        /* \"#utility.yul\":3389:3398   */\n      dup3\n        /* \"#utility.yul\":3380:3387   */\n      dup5\n        /* \"#utility.yul\":3376:3399   */\n      sub\n        /* \"#utility.yul\":3372:3404   */\n      slt\n        /* \"#utility.yul\":3369:3488   */\n      iszero\n      tag_99\n      jumpi\n        /* \"#utility.yul\":3407:3486   */\n      tag_100\n      tag_42\n      jump\t// in\n    tag_100:\n        /* \"#utility.yul\":3369:3488   */\n    tag_99:\n        /* \"#utility.yul\":3527:3528   */\n      0x00\n        /* \"#utility.yul\":3552:3605   */\n      tag_101\n        /* \"#utility.yul\":3597:3604   */\n      dup5\n        /* \"#utility.yul\":3588:3594   */\n      dup3\n        /* \"#utility.yul\":3577:3586   */\n      dup6\n        /* \"#utility.yul\":3573:3595   */\n      add\n        /* \"#utility.yul\":3552:3605   */\n      tag_49\n      jump\t// in\n    tag_101:\n        /* \"#utility.yul\":3542:3605   */\n      swap2\n      pop\n        /* \"#utility.yul\":3498:3615   */\n      pop\n        /* \"#utility.yul\":3293:3622   */\n      swap3\n      swap2\n      pop\n      pop\n      jump\t// out\n        /* \"#utility.yul\":3628:3850   */\n    tag_20:\n        /* \"#utility.yul\":3721:3725   */\n      0x00\n        /* \"#utility.yul\":3759:3761   */\n      0x20\n        /* \"#utility.yul\":3748:3757   */\n      dup3\n        /* \"#utility.yul\":3744:3762   */\n      add\n        /* \"#utility.yul\":3736:3762   */\n      swap1\n      pop\n        /* \"#utility.yul\":3772:3843   */\n      tag_103\n        /* \"#utility.yul\":3840:3841   */\n      0x00\n        /* \"#utility.yul\":3829:3838   */\n      dup4\n        /* \"#utility.yul\":3825:3842   */\n      add\n        /* \"#utility.yul\":3816:3822   */\n      dup5\n        /* \"#utility.yul\":3772:3843   */\n      tag_38\n      jump\t// in\n    tag_103:\n        /* \"#utility.yul\":3628:3850   */\n      swap3\n      swap2\n      pop\n      pop\n      jump\t// out\n        /* \"#utility.yul\":3856:3958   */\n    tag_50:\n        /* \"#utility.yul\":3897:3903   */\n      0x00\n        /* \"#utility.yul\":3948:3950   */\n      0x1f\n        /* \"#utility.yul\":3944:3951   */\n      not\n        /* \"#utility.yul\":3939:3941   */\n      0x1f\n        /* \"#utility.yul\":3932:3937   */\n      dup4\n        /* \"#utility.yul\":3928:3942   */\n      add\n        /* \"#utility.yul\":3924:3952   */\n      and\n        /* \"#utility.yul\":3914:3952   */\n      swap1\n      pop\n        /* \"#utility.yul\":3856:3958   */\n      swap2\n      swap1\n      pop\n      jump\t// out\n        /* \"#utility.yul\":3964:4144   */\n    tag_51:\n        /* \"#utility.yul\":4012:4089   */\n      0x4e487b7100000000000000000000000000000000000000000000000000000000\n        /* \"#utility.yul\":4009:4010   */\n      0x00\n        /* \"#utility.yul\":4002:4090   */\n      mstore\n        /* \"#utility.yul\":4109:4113   */\n      0x41\n        /* \"#utility.yul\":4106:4107   */\n      0x04\n        /* \"#utility.yul\":4099:4114   */\n      mstore\n        /* \"#utility.yul\":4133:4137   */\n      0x24\n        /* \"#utility.yul\":4130:4131   */\n      0x00\n        /* \"#utility.yul\":4123:4138   */\n      revert\n        /* \"#utility.yul\":4150:4431   */\n    tag_52:\n        /* \"#utility.yul\":4233:4260   */\n      tag_107\n        /* \"#utility.yul\":4255:4259   */\n      dup3\n        /* \"#utility.yul\":4233:4260   */\n      tag_50\n      jump\t// in\n    tag_107:\n        /* \"#utility.yul\":4225:4231   */\n      dup2\n        /* \"#utility.yul\":4221:4261   */\n      add\n        /* \"#utility.yul\":4363:4369   */\n      dup2\n        /* \"#utility.yul\":4351:4361   */\n      dup2\n        /* \"#utility.yul\":4348:4370   */\n      lt\n        /* \"#utility.yul\":4327:4345   */\n      0xffffffffffffffff\n        /* \"#utility.yul\":4315:4325   */\n      dup3\n        /* \"#utility.yul\":4312:4346   */\n      gt\n        /* \"#utility.yul\":4309:4371   */\n      or\n        /* \"#utility.yul\":4306:4394   */\n      iszero\n      tag_108\n      jumpi\n        /* \"#utility.yul\":4374:4392   */\n      tag_109\n      tag_51\n      jump\t// in\n    tag_109:\n        /* \"#utility.yul\":4306:4394   */\n    tag_108:\n        /* \"#utility.yul\":4414:4424   */\n      dup1\n        /* \"#utility.yul\":4410:4412   */\n      0x40\n        /* \"#utility.yul\":4403:4425   */\n      mstore\n        /* \"#utility.yul\":4193:4431   */\n      pop\n        /* \"#utility.yul\":4150:4431   */\n      pop\n      pop\n      jump\t// out\n        /* \"#utility.yul\":4437:4566   */\n    tag_53:\n        /* \"#utility.yul\":4471:4477   */\n      0x00\n        /* \"#utility.yul\":4498:4518   */\n      tag_111\n      tag_41\n      jump\t// in\n    tag_111:\n        /* \"#utility.yul\":4488:4518   */\n      swap1\n      pop\n        /* \"#utility.yul\":4527:4560   */\n      tag_112\n        /* \"#utility.yul\":4555:4559   */\n      dup3\n        /* \"#utility.yul\":4547:4553   */\n      dup3\n        /* \"#utility.yul\":4527:4560   */\n      tag_52\n      jump\t// in\n    tag_112:\n        /* \"#utility.yul\":4437:4566   */\n      swap2\n      swap1\n      pop\n      jump\t// out\n        /* \"#utility.yul\":4572:4883   */\n    tag_54:\n        /* \"#utility.yul\":4649:4653   */\n      0x00\n        /* \"#utility.yul\":4739:4757   */\n      0xffffffffffffffff\n        /* \"#utility.yul\":4731:4737   */\n      dup3\n        /* \"#utility.yul\":4728:4758   */\n      gt\n        /* \"#utility.yul\":4725:4781   */\n      iszero\n      tag_114\n      jumpi\n        /* \"#utility.yul\":4761:4779   */\n      tag_115\n      tag_51\n      jump\t// in\n    tag_115:\n        /* \"#utility.yul\":4725:4781   */\n    tag_114:\n        /* \"#utility.yul\":4811:4815   */\n      0x20\n        /* \"#utility.yul\":4803:4809   */\n      dup3\n        /* \"#utility.yul\":4799:4816   */\n      mul\n        /* \"#utility.yul\":4791:4816   */\n      swap1\n      pop\n        /* \"#utility.yul\":4871:4875   */\n      0x20\n        /* \"#utility.yul\":4865:4869   */\n      dup2\n        /* \"#utility.yul\":4861:4876   */\n      add\n        /* \"#utility.yul\":4853:4876   */\n      swap1\n      pop\n        /* \"#utility.yul\":4572:4883   */\n      swap2\n      swap1\n      pop\n      jump\t// out\n        /* \"#utility.yul\":4906:5616   */\n    tag_55:\n        /* \"#utility.yul\":5002:5007   */\n      0x00\n        /* \"#utility.yul\":5027:5108   */\n      tag_117\n        /* \"#utility.yul\":5043:5107   */\n      tag_118\n        /* \"#utility.yul\":5100:5106   */\n      dup5\n        /* \"#utility.yul\":5043:5107   */\n      tag_54\n      jump\t// in\n    tag_118:\n        /* \"#utility.yul\":5027:5108   */\n      tag_53\n      jump\t// in\n    tag_117:\n        /* \"#utility.yul\":5018:5108   */\n      swap1\n      pop\n        /* \"#utility.yul\":5128:5133   */\n      dup1\n        /* \"#utility.yul\":5157:5163   */\n      dup4\n        /* \"#utility.yul\":5150:5155   */\n      dup3\n        /* \"#utility.yul\":5143:5164   */\n      mstore\n        /* \"#utility.yul\":5191:5195   */\n      0x20\n        /* \"#utility.yul\":5184:5189   */\n      dup3\n        /* \"#utility.yul\":5180:5196   */\n      add\n        /* \"#utility.yul\":5173:5196   */\n      swap1\n      pop\n        /* \"#utility.yul\":5244:5248   */\n      0x20\n        /* \"#utility.yul\":5236:5242   */\n      dup5\n        /* \"#utility.yul\":5232:5249   */\n      mul\n        /* \"#utility.yul\":5224:5230   */\n      dup4\n        /* \"#utility.yul\":5220:5250   */\n      add\n        /* \"#utility.yul\":5273:5276   */\n      dup6\n        /* \"#utility.yul\":5265:5271   */\n      dup2\n        /* \"#utility.yul\":5262:5277   */\n      gt\n        /* \"#utility.yul\":5259:5381   */\n      iszero\n      tag_119\n      jumpi\n        /* \"#utility.yul\":5292:5371   */\n      tag_120\n      tag_46\n      jump\t// in\n    tag_120:\n        /* \"#utility.yul\":5259:5381   */\n    tag_119:\n        /* \"#utility.yul\":5407:5413   */\n      dup4\n        /* \"#utility.yul\":5390:5610   */\n    tag_121:\n        /* \"#utility.yul\":5424:5430   */\n      dup2\n        /* \"#utility.yul\":5419:5422   */\n      dup2\n        /* \"#utility.yul\":5416:5431   */\n      lt\n        /* \"#utility.yul\":5390:5610   */\n      iszero\n      tag_123\n      jumpi\n        /* \"#utility.yul\":5499:5502   */\n      dup1\n        /* \"#utility.yul\":5528:5565   */\n      tag_124\n        /* \"#utility.yul\":5561:5564   */\n      dup9\n        /* \"#utility.yul\":5549:5559   */\n      dup3\n        /* \"#utility.yul\":5528:5565   */\n      tag_49\n      jump\t// in\n    tag_124:\n        /* \"#utility.yul\":5523:5526   */\n      dup5\n        /* \"#utility.yul\":5516:5566   */\n      mstore\n        /* \"#utility.yul\":5595:5599   */\n      0x20\n        /* \"#utility.yul\":5590:5593   */\n      dup5\n        /* \"#utility.yul\":5586:5600   */\n      add\n        /* \"#utility.yul\":5579:5600   */\n      swap4\n      pop\n        /* \"#utility.yul\":5466:5610   */\n      pop\n        /* \"#utility.yul\":5450:5454   */\n      0x20\n        /* \"#utility.yul\":5445:5448   */\n      dup2\n        /* \"#utility.yul\":5441:5455   */\n      add\n        /* \"#utility.yul\":5434:5455   */\n      swap1\n      pop\n        /* \"#utility.yul\":5390:5610   */\n      jump(tag_121)\n    tag_123:\n        /* \"#utility.yul\":5394:5415   */\n      pop\n        /* \"#utility.yul\":5008:5616   */\n      pop\n      pop\n        /* \"#utility.yul\":4906:5616   */\n      swap4\n      swap3\n      pop\n      pop\n      pop\n      jump\t// out\n        /* \"#utility.yul\":5639:6009   */\n    tag_56:\n        /* \"#utility.yul\":5710:5715   */\n      0x00\n        /* \"#utility.yul\":5759:5762   */\n      dup3\n        /* \"#utility.yul\":5752:5756   */\n      0x1f\n        /* \"#utility.yul\":5744:5750   */\n      dup4\n        /* \"#utility.yul\":5740:5757   */\n      add\n        /* \"#utility.yul\":5736:5763   */\n      slt\n        /* \"#utility.yul\":5726:5848   */\n      tag_126\n      jumpi\n        /* \"#utility.yul\":5767:5846   */\n      tag_127\n      tag_44\n      jump\t// in\n    tag_127:\n        /* \"#utility.yul\":5726:5848   */\n    tag_126:\n        /* \"#utility.yul\":5884:5890   */\n      dup2\n        /* \"#utility.yul\":5871:5891   */\n      calldataload\n        /* \"#utility.yul\":5909:6003   */\n      tag_128\n        /* \"#utility.yul\":5999:6002   */\n      dup5\n        /* \"#utility.yul\":5991:5997   */\n      dup3\n        /* \"#utility.yul\":5984:5988   */\n      0x20\n        /* \"#utility.yul\":5976:5982   */\n      dup7\n        /* \"#utility.yul\":5972:5989   */\n      add\n        /* \"#utility.yul\":5909:6003   */\n      tag_55\n      jump\t// in\n    tag_128:\n        /* \"#utility.yul\":5900:6003   */\n      swap2\n      pop\n        /* \"#utility.yul\":5716:6009   */\n      pop\n        /* \"#utility.yul\":5639:6009   */\n      swap3\n      swap2\n      pop\n      pop\n      jump\t// out\n        /* \"#utility.yul\":6015:6554   */\n    tag_23:\n        /* \"#utility.yul\":6099:6105   */\n      0x00\n        /* \"#utility.yul\":6148:6150   */\n      0x20\n        /* \"#utility.yul\":6136:6145   */\n      dup3\n        /* \"#utility.yul\":6127:6134   */\n      dup5\n        /* \"#utility.yul\":6123:6146   */\n      sub\n        /* \"#utility.yul\":6119:6151   */\n      slt\n        /* \"#utility.yul\":6116:6235   */\n      iszero\n      tag_130\n      jumpi\n        /* \"#utility.yul\":6154:6233   */\n      tag_131\n      tag_42\n      jump\t// in\n    tag_131:\n        /* \"#utility.yul\":6116:6235   */\n    tag_130:\n        /* \"#utility.yul\":6302:6303   */\n      0x00\n        /* \"#utility.yul\":6291:6300   */\n      dup3\n        /* \"#utility.yul\":6287:6304   */\n      add\n        /* \"#utility.yul\":6274:6305   */\n      calldataload\n        /* \"#utility.yul\":6332:6350   */\n      0xffffffffffffffff\n        /* \"#utility.yul\":6324:6330   */\n      dup2\n        /* \"#utility.yul\":6321:6351   */\n      gt\n        /* \"#utility.yul\":6318:6435   */\n      iszero\n      tag_132\n      jumpi\n        /* \"#utility.yul\":6354:6433   */\n      tag_133\n      tag_43\n      jump\t// in\n    tag_133:\n        /* \"#utility.yul\":6318:6435   */\n    tag_132:\n        /* \"#utility.yul\":6459:6537   */\n      tag_134\n        /* \"#utility.yul\":6529:6536   */\n      dup5\n        /* \"#utility.yul\":6520:6526   */\n      dup3\n        /* \"#utility.yul\":6509:6518   */\n      dup6\n        /* \"#utility.yul\":6505:6527   */\n      add\n        /* \"#utility.yul\":6459:6537   */\n      tag_56\n      jump\t// in\n    tag_134:\n        /* \"#utility.yul\":6449:6537   */\n      swap2\n      pop\n        /* \"#utility.yul\":6245:6547   */\n      pop\n        /* \"#utility.yul\":6015:6554   */\n      swap3\n      swap2\n      pop\n      pop\n      jump\t// out\n        /* \"#utility.yul\":6560:6674   */\n    tag_57:\n        /* \"#utility.yul\":6627:6633   */\n      0x00\n        /* \"#utility.yul\":6661:6666   */\n      dup2\n        /* \"#utility.yul\":6655:6667   */\n      mload\n        /* \"#utility.yul\":6645:6667   */\n      swap1\n      pop\n        /* \"#utility.yul\":6560:6674   */\n      swap2\n      swap1\n      pop\n      jump\t// out\n        /* \"#utility.yul\":6680:6864   */\n    tag_58:\n        /* \"#utility.yul\":6779:6790   */\n      0x00\n        /* \"#utility.yul\":6813:6819   */\n      dup3\n        /* \"#utility.yul\":6808:6811   */\n      dup3\n        /* \"#utility.yul\":6801:6820   */\n      mstore\n        /* \"#utility.yul\":6853:6857   */\n      0x20\n        /* \"#utility.yul\":6848:6851   */\n      dup3\n        /* \"#utility.yul\":6844:6858   */\n      add\n        /* \"#utility.yul\":6829:6858   */\n      swap1\n      pop\n        /* \"#utility.yul\":6680:6864   */\n      swap3\n      swap2\n      pop\n      pop\n      jump\t// out\n        /* \"#utility.yul\":6870:7002   */\n    tag_59:\n        /* \"#utility.yul\":6937:6941   */\n      0x00\n        /* \"#utility.yul\":6960:6963   */\n      dup2\n        /* \"#utility.yul\":6952:6963   */\n      swap1\n      pop\n        /* \"#utility.yul\":6990:6994   */\n      0x20\n        /* \"#utility.yul\":6985:6988   */\n      dup3\n        /* \"#utility.yul\":6981:6995   */\n      add\n        /* \"#utility.yul\":6973:6995   */\n      swap1\n      pop\n        /* \"#utility.yul\":6870:7002   */\n      swap2\n      swap1\n      pop\n      jump\t// out\n        /* \"#utility.yul\":7008:7187   */\n    tag_60:\n        /* \"#utility.yul\":7077:7087   */\n      0x00\n        /* \"#utility.yul\":7098:7144   */\n      tag_139\n        /* \"#utility.yul\":7140:7143   */\n      dup4\n        /* \"#utility.yul\":7132:7138   */\n      dup4\n        /* \"#utility.yul\":7098:7144   */\n      tag_39\n      jump\t// in\n    tag_139:\n        /* \"#utility.yul\":7176:7180   */\n      0x20\n        /* \"#utility.yul\":7171:7174   */\n      dup4\n        /* \"#utility.yul\":7167:7181   */\n      add\n        /* \"#utility.yul\":7153:7181   */\n      swap1\n      pop\n        /* \"#utility.yul\":7008:7187   */\n      swap3\n      swap2\n      pop\n      pop\n      jump\t// out\n        /* \"#utility.yul\":7193:7306   */\n    tag_61:\n        /* \"#utility.yul\":7263:7267   */\n      0x00\n        /* \"#utility.yul\":7295:7299   */\n      0x20\n        /* \"#utility.yul\":7290:7293   */\n      dup3\n        /* \"#utility.yul\":7286:7300   */\n      add\n        /* \"#utility.yul\":7278:7300   */\n      swap1\n      pop\n        /* \"#utility.yul\":7193:7306   */\n      swap2\n      swap1\n      pop\n      jump\t// out\n        /* \"#utility.yul\":7342:8074   */\n    tag_62:\n        /* \"#utility.yul\":7461:7464   */\n      0x00\n        /* \"#utility.yul\":7490:7544   */\n      tag_142\n        /* \"#utility.yul\":7538:7543   */\n      dup3\n        /* \"#utility.yul\":7490:7544   */\n      tag_57\n      jump\t// in\n    tag_142:\n        /* \"#utility.yul\":7560:7646   */\n      tag_143\n        /* \"#utility.yul\":7639:7645   */\n      dup2\n        /* \"#utility.yul\":7634:7637   */\n      dup6\n        /* \"#utility.yul\":7560:7646   */\n      tag_58\n      jump\t// in\n    tag_143:\n        /* \"#utility.yul\":7553:7646   */\n      swap4\n      pop\n        /* \"#utility.yul\":7670:7726   */\n      tag_144\n        /* \"#utility.yul\":7720:7725   */\n      dup4\n        /* \"#utility.yul\":7670:7726   */\n      tag_59\n      jump\t// in\n    tag_144:\n        /* \"#utility.yul\":7749:7756   */\n      dup1\n        /* \"#utility.yul\":7780:7781   */\n      0x00\n        /* \"#utility.yul\":7765:8049   */\n    tag_145:\n        /* \"#utility.yul\":7790:7796   */\n      dup4\n        /* \"#utility.yul\":7787:7788   */\n      dup2\n        /* \"#utility.yul\":7784:7797   */\n      lt\n        /* \"#utility.yul\":7765:8049   */\n      iszero\n      tag_147\n      jumpi\n        /* \"#utility.yul\":7866:7872   */\n      dup2\n        /* \"#utility.yul\":7860:7873   */\n      mload\n        /* \"#utility.yul\":7893:7956   */\n      tag_148\n        /* \"#utility.yul\":7952:7955   */\n      dup9\n        /* \"#utility.yul\":7937:7950   */\n      dup3\n        /* \"#utility.yul\":7893:7956   */\n      tag_60\n      jump\t// in\n    tag_148:\n        /* \"#utility.yul\":7886:7956   */\n      swap8\n      pop\n        /* \"#utility.yul\":7979:8039   */\n      tag_149\n        /* \"#utility.yul\":8032:8038   */\n      dup4\n        /* \"#utility.yul\":7979:8039   */\n      tag_61\n      jump\t// in\n    tag_149:\n        /* \"#utility.yul\":7969:8039   */\n      swap3\n      pop\n        /* \"#utility.yul\":7825:8049   */\n      pop\n        /* \"#utility.yul\":7812:7813   */\n      0x01\n        /* \"#utility.yul\":7809:7810   */\n      dup2\n        /* \"#utility.yul\":7805:7814   */\n      add\n        /* \"#utility.yul\":7800:7814   */\n      swap1\n      pop\n        /* \"#utility.yul\":7765:8049   */\n      jump(tag_145)\n    tag_147:\n        /* \"#utility.yul\":7769:7783   */\n      pop\n        /* \"#utility.yul\":8065:8068   */\n      dup6\n        /* \"#utility.yul\":8058:8068   */\n      swap4\n      pop\n        /* \"#utility.yul\":7466:8074   */\n      pop\n      pop\n      pop\n        /* \"#utility.yul\":7342:8074   */\n      swap3\n      swap2\n      pop\n      pop\n      jump\t// out\n        /* \"#utility.yul\":8080:8453   */\n    tag_26:\n        /* \"#utility.yul\":8223:8227   */\n      0x00\n        /* \"#utility.yul\":8261:8263   */\n      0x20\n        /* \"#utility.yul\":8250:8259   */\n      dup3\n        /* \"#utility.yul\":8246:8264   */\n      add\n        /* \"#utility.yul\":8238:8264   */\n      swap1\n      pop\n        /* \"#utility.yul\":8310:8319   */\n      dup2\n        /* \"#utility.yul\":8304:8308   */\n      dup2\n        /* \"#utility.yul\":8300:8320   */\n      sub\n        /* \"#utility.yul\":8296:8297   */\n      0x00\n        /* \"#utility.yul\":8285:8294   */\n      dup4\n        /* \"#utility.yul\":8281:8298   */\n      add\n        /* \"#utility.yul\":8274:8321   */\n      mstore\n        /* \"#utility.yul\":8338:8446   */\n      tag_151\n        /* \"#utility.yul\":8441:8445   */\n      dup2\n        /* \"#utility.yul\":8432:8438   */\n      dup5\n        /* \"#utility.yul\":8338:8446   */\n      tag_62\n      jump\t// in\n    tag_151:\n        /* \"#utility.yul\":8330:8446   */\n      swap1\n      pop\n        /* \"#utility.yul\":8080:8453   */\n      swap3\n      swap2\n      pop\n      pop\n      jump\t// out\n\n    auxdata: 0xa264697066735822122046abd056bd5b256b691b00b22e5c0b8538922d72bd58dd2977e42da50ab1077464736f6c634300081a0033\n}\n",
				"bytecode": {
					"linkReferences": {},
					"object": "6080604052348015600e575f80fd5b506105af8061001c5f395ff3fe608060405234801561000f575f80fd5b506004361061004a575f3560e01c806326121ff01461004e57806340dcbb081461006d57806371e5ee5f14610089578063baf71609146100b9575b5f80fd5b6100566100e9565b6040516100649291906101d0565b60405180910390f35b61008760048036038101906100829190610269565b61014e565b005b6100a3600480360381019061009e91906102de565b610152565b6040516100b09190610309565b60405180910390f35b6100d360048036038101906100ce919061046a565b610171565b6040516100e09190610559565b60405180910390f35b5f6100f261017d565b61010f5f600160025f600181526020019081526020015f20610178565b5f60025f600181526020019081526020015f209050607b815f01819055505f60405180602001604052805f8152509050815f0154819350935050509091565b5050565b5f8181548110610160575f80fd5b905f5260205f20015f915090505481565b6060919050565b505050565b60405180602001604052805f81525090565b5f819050919050565b6101a18161018f565b82525050565b6101b08161018f565b82525050565b602082015f8201516101ca5f8501826101a7565b50505050565b5f6040820190506101e35f830185610198565b6101f060208301846101b6565b9392505050565b5f604051905090565b5f80fd5b5f80fd5b5f80fd5b5f80fd5b5f80fd5b5f8083601f84011261022957610228610208565b5b8235905067ffffffffffffffff8111156102465761024561020c565b5b60208301915083602082028301111561026257610261610210565b5b9250929050565b5f806020838503121561027f5761027e610200565b5b5f83013567ffffffffffffffff81111561029c5761029b610204565b5b6102a885828601610214565b92509250509250929050565b6102bd8161018f565b81146102c7575f80fd5b50565b5f813590506102d8816102b4565b92915050565b5f602082840312156102f3576102f2610200565b5b5f610300848285016102ca565b91505092915050565b5f60208201905061031c5f830184610198565b92915050565b5f601f19601f8301169050919050565b7f4e487b71000000000000000000000000000000000000000000000000000000005f52604160045260245ffd5b61036882610322565b810181811067ffffffffffffffff8211171561038757610386610332565b5b80604052505050565b5f6103996101f7565b90506103a5828261035f565b919050565b5f67ffffffffffffffff8211156103c4576103c3610332565b5b602082029050602081019050919050565b5f6103e76103e2846103aa565b610390565b9050808382526020820190506020840283018581111561040a57610409610210565b5b835b81811015610433578061041f88826102ca565b84526020840193505060208101905061040c565b5050509392505050565b5f82601f83011261045157610450610208565b5b81356104618482602086016103d5565b91505092915050565b5f6020828403121561047f5761047e610200565b5b5f82013567ffffffffffffffff81111561049c5761049b610204565b5b6104a88482850161043d565b91505092915050565b5f81519050919050565b5f82825260208201905092915050565b5f819050602082019050919050565b5f6104e583836101a7565b60208301905092915050565b5f602082019050919050565b5f610507826104b1565b61051181856104bb565b935061051c836104cb565b805f5b8381101561054c57815161053388826104da565b975061053e836104f1565b92505060018101905061051f565b5085935050505092915050565b5f6020820190508181035f83015261057181846104fd565b90509291505056fea264697066735822122046abd056bd5b256b691b00b22e5c0b8538922d72bd58dd2977e42da50ab1077464736f6c634300081a0033",
					"opcodes": "PUSH1 0x80 PUSH1 0x40 MSTORE CALLVALUE DUP1 ISZERO PUSH1 0xE JUMPI PUSH0 DUP1 REVERT JUMPDEST POP PUSH2 0x5AF DUP1 PUSH2 0x1C PUSH0 CODECOPY PUSH0 RETURN INVALID PUSH1 0x80 PUSH1 0x40 MSTORE CALLVALUE DUP1 ISZERO PUSH2 0xF JUMPI PUSH0 DUP1 REVERT JUMPDEST POP PUSH1 0x4 CALLDATASIZE LT PUSH2 0x4A JUMPI PUSH0 CALLDATALOAD PUSH1 0xE0 SHR DUP1 PUSH4 0x26121FF0 EQ PUSH2 0x4E JUMPI DUP1 PUSH4 0x40DCBB08 EQ PUSH2 0x6D JUMPI DUP1 PUSH4 0x71E5EE5F EQ PUSH2 0x89 JUMPI DUP1 PUSH4 0xBAF71609 EQ PUSH2 0xB9 JUMPI JUMPDEST PUSH0 DUP1 REVERT JUMPDEST PUSH2 0x56 PUSH2 0xE9 JUMP JUMPDEST PUSH1 0x40 MLOAD PUSH2 0x64 SWAP3 SWAP2 SWAP1 PUSH2 0x1D0 JUMP JUMPDEST PUSH1 0x40 MLOAD DUP1 SWAP2 SUB SWAP1 RETURN JUMPDEST PUSH2 0x87 PUSH1 0x4 DUP1 CALLDATASIZE SUB DUP2 ADD SWAP1 PUSH2 0x82 SWAP2 SWAP1 PUSH2 0x269 JUMP JUMPDEST PUSH2 0x14E JUMP JUMPDEST STOP JUMPDEST PUSH2 0xA3 PUSH1 0x4 DUP1 CALLDATASIZE SUB DUP2 ADD SWAP1 PUSH2 0x9E SWAP2 SWAP1 PUSH2 0x2DE JUMP JUMPDEST PUSH2 0x152 JUMP JUMPDEST PUSH1 0x40 MLOAD PUSH2 0xB0 SWAP2 SWAP1 PUSH2 0x309 JUMP JUMPDEST PUSH1 0x40 MLOAD DUP1 SWAP2 SUB SWAP1 RETURN JUMPDEST PUSH2 0xD3 PUSH1 0x4 DUP1 CALLDATASIZE SUB DUP2 ADD SWAP1 PUSH2 0xCE SWAP2 SWAP1 PUSH2 0x46A JUMP JUMPDEST PUSH2 0x171 JUMP JUMPDEST PUSH1 0x40 MLOAD PUSH2 0xE0 SWAP2 SWAP1 PUSH2 0x559 JUMP JUMPDEST PUSH1 0x40 MLOAD DUP1 SWAP2 SUB SWAP1 RETURN JUMPDEST PUSH0 PUSH2 0xF2 PUSH2 0x17D JUMP JUMPDEST PUSH2 0x10F PUSH0 PUSH1 0x1 PUSH1 0x2 PUSH0 PUSH1 0x1 DUP2 MSTORE PUSH1 0x20 ADD SWAP1 DUP2 MSTORE PUSH1 0x20 ADD PUSH0 KECCAK256 PUSH2 0x178 JUMP JUMPDEST PUSH0 PUSH1 0x2 PUSH0 PUSH1 0x1 DUP2 MSTORE PUSH1 0x20 ADD SWAP1 DUP2 MSTORE PUSH1 0x20 ADD PUSH0 KECCAK256 SWAP1 POP PUSH1 0x7B DUP2 PUSH0 ADD DUP2 SWAP1 SSTORE POP PUSH0 PUSH1 0x40 MLOAD DUP1 PUSH1 0x20 ADD PUSH1 0x40 MSTORE DUP1 PUSH0 DUP2 MSTORE POP SWAP1 POP DUP2 PUSH0 ADD SLOAD DUP2 SWAP4 POP SWAP4 POP POP POP SWAP1 SWAP2 JUMP JUMPDEST POP POP JUMP JUMPDEST PUSH0 DUP2 DUP2 SLOAD DUP2 LT PUSH2 0x160 JUMPI PUSH0 DUP1 REVERT JUMPDEST SWAP1 PUSH0 MSTORE PUSH1 0x20 PUSH0 KECCAK256 ADD PUSH0 SWAP2 POP SWAP1 POP SLOAD DUP2 JUMP JUMPDEST PUSH1 0x60 SWAP2 SWAP1 POP JUMP JUMPDEST POP POP POP JUMP JUMPDEST PUSH1 0x40 MLOAD DUP1 PUSH1 0x20 ADD PUSH1 0x40 MSTORE DUP1 PUSH0 DUP2 MSTORE POP SWAP1 JUMP JUMPDEST PUSH0 DUP2 SWAP1 POP SWAP2 SWAP1 POP JUMP JUMPDEST PUSH2 0x1A1 DUP2 PUSH2 0x18F JUMP JUMPDEST DUP3 MSTORE POP POP JUMP JUMPDEST PUSH2 0x1B0 DUP2 PUSH2 0x18F JUMP JUMPDEST DUP3 MSTORE POP POP JUMP JUMPDEST PUSH1 0x20 DUP3 ADD PUSH0 DUP3 ADD MLOAD PUSH2 0x1CA PUSH0 DUP6 ADD DUP3 PUSH2 0x1A7 JUMP JUMPDEST POP POP POP POP JUMP JUMPDEST PUSH0 PUSH1 0x40 DUP3 ADD SWAP1 POP PUSH2 0x1E3 PUSH0 DUP4 ADD DUP6 PUSH2 0x198 JUMP JUMPDEST PUSH2 0x1F0 PUSH1 0x20 DUP4 ADD DUP5 PUSH2 0x1B6 JUMP JUMPDEST SWAP4 SWAP3 POP POP POP JUMP JUMPDEST PUSH0 PUSH1 0x40 MLOAD SWAP1 POP SWAP1 JUMP JUMPDEST PUSH0 DUP1 REVERT JUMPDEST PUSH0 DUP1 REVERT JUMPDEST PUSH0 DUP1 REVERT JUMPDEST PUSH0 DUP1 REVERT JUMPDEST PUSH0 DUP1 REVERT JUMPDEST PUSH0 DUP1 DUP4 PUSH1 0x1F DUP5 ADD SLT PUSH2 0x229 JUMPI PUSH2 0x228 PUSH2 0x208 JUMP JUMPDEST JUMPDEST DUP3 CALLDATALOAD SWAP1 POP PUSH8 0xFFFFFFFFFFFFFFFF DUP2 GT ISZERO PUSH2 0x246 JUMPI PUSH2 0x245 PUSH2 0x20C JUMP JUMPDEST JUMPDEST PUSH1 0x20 DUP4 ADD SWAP2 POP DUP4 PUSH1 0x20 DUP3 MUL DUP4 ADD GT ISZERO PUSH2 0x262 JUMPI PUSH2 0x261 PUSH2 0x210 JUMP JUMPDEST JUMPDEST SWAP3 POP SWAP3 SWAP1 POP JUMP JUMPDEST PUSH0 DUP1 PUSH1 0x20 DUP4 DUP6 SUB SLT ISZERO PUSH2 0x27F JUMPI PUSH2 0x27E PUSH2 0x200 JUMP JUMPDEST JUMPDEST PUSH0 DUP4 ADD CALLDATALOAD PUSH8 0xFFFFFFFFFFFFFFFF DUP2 GT ISZERO PUSH2 0x29C JUMPI PUSH2 0x29B PUSH2 0x204 JUMP JUMPDEST JUMPDEST PUSH2 0x2A8 DUP6 DUP3 DUP7 ADD PUSH2 0x214 JUMP JUMPDEST SWAP3 POP SWAP3 POP POP SWAP3 POP SWAP3 SWAP1 POP JUMP JUMPDEST PUSH2 0x2BD DUP2 PUSH2 0x18F JUMP JUMPDEST DUP2 EQ PUSH2 0x2C7 JUMPI PUSH0 DUP1 REVERT JUMPDEST POP JUMP JUMPDEST PUSH0 DUP2 CALLDATALOAD SWAP1 POP PUSH2 0x2D8 DUP2 PUSH2 0x2B4 JUMP JUMPDEST SWAP3 SWAP2 POP POP JUMP JUMPDEST PUSH0 PUSH1 0x20 DUP3 DUP5 SUB SLT ISZERO PUSH2 0x2F3 JUMPI PUSH2 0x2F2 PUSH2 0x200 JUMP JUMPDEST JUMPDEST PUSH0 PUSH2 0x300 DUP5 DUP3 DUP6 ADD PUSH2 0x2CA JUMP JUMPDEST SWAP2 POP POP SWAP3 SWAP2 POP POP JUMP JUMPDEST PUSH0 PUSH1 0x20 DUP3 ADD SWAP1 POP PUSH2 0x31C PUSH0 DUP4 ADD DUP5 PUSH2 0x198 JUMP JUMPDEST SWAP3 SWAP2 POP POP JUMP JUMPDEST PUSH0 PUSH1 0x1F NOT PUSH1 0x1F DUP4 ADD AND SWAP1 POP SWAP2 SWAP1 POP JUMP JUMPDEST PUSH32 0x4E487B7100000000000000000000000000000000000000000000000000000000 PUSH0 MSTORE PUSH1 0x41 PUSH1 0x4 MSTORE PUSH1 0x24 PUSH0 REVERT JUMPDEST PUSH2 0x368 DUP3 PUSH2 0x322 JUMP JUMPDEST DUP2 ADD DUP2 DUP2 LT PUSH8 0xFFFFFFFFFFFFFFFF DUP3 GT OR ISZERO PUSH2 0x387 JUMPI PUSH2 0x386 PUSH2 0x332 JUMP JUMPDEST JUMPDEST DUP1 PUSH1 0x40 MSTORE POP POP POP JUMP JUMPDEST PUSH0 PUSH2 0x399 PUSH2 0x1F7 JUMP JUMPDEST SWAP1 POP PUSH2 0x3A5 DUP3 DUP3 PUSH2 0x35F JUMP JUMPDEST SWAP2 SWAP1 POP JUMP JUMPDEST PUSH0 PUSH8 0xFFFFFFFFFFFFFFFF DUP3 GT ISZERO PUSH2 0x3C4 JUMPI PUSH2 0x3C3 PUSH2 0x332 JUMP JUMPDEST JUMPDEST PUSH1 0x20 DUP3 MUL SWAP1 POP PUSH1 0x20 DUP2 ADD SWAP1 POP SWAP2 SWAP1 POP JUMP JUMPDEST PUSH0 PUSH2 0x3E7 PUSH2 0x3E2 DUP5 PUSH2 0x3AA JUMP JUMPDEST PUSH2 0x390 JUMP JUMPDEST SWAP1 POP DUP1 DUP4 DUP3 MSTORE PUSH1 0x20 DUP3 ADD SWAP1 POP PUSH1 0x20 DUP5 MUL DUP4 ADD DUP6 DUP2 GT ISZERO PUSH2 0x40A JUMPI PUSH2 0x409 PUSH2 0x210 JUMP JUMPDEST JUMPDEST DUP4 JUMPDEST DUP2 DUP2 LT ISZERO PUSH2 0x433 JUMPI DUP1 PUSH2 0x41F DUP9 DUP3 PUSH2 0x2CA JUMP JUMPDEST DUP5 MSTORE PUSH1 0x20 DUP5 ADD SWAP4 POP POP PUSH1 0x20 DUP2 ADD SWAP1 POP PUSH2 0x40C JUMP JUMPDEST POP POP POP SWAP4 SWAP3 POP POP POP JUMP JUMPDEST PUSH0 DUP3 PUSH1 0x1F DUP4 ADD SLT PUSH2 0x451 JUMPI PUSH2 0x450 PUSH2 0x208 JUMP JUMPDEST JUMPDEST DUP2 CALLDATALOAD PUSH2 0x461 DUP5 DUP3 PUSH1 0x20 DUP7 ADD PUSH2 0x3D5 JUMP JUMPDEST SWAP2 POP POP SWAP3 SWAP2 POP POP JUMP JUMPDEST PUSH0 PUSH1 0x20 DUP3 DUP5 SUB SLT ISZERO PUSH2 0x47F JUMPI PUSH2 0x47E PUSH2 0x200 JUMP JUMPDEST JUMPDEST PUSH0 DUP3 ADD CALLDATALOAD PUSH8 0xFFFFFFFFFFFFFFFF DUP2 GT ISZERO PUSH2 0x49C JUMPI PUSH2 0x49B PUSH2 0x204 JUMP JUMPDEST JUMPDEST PUSH2 0x4A8 DUP5 DUP3 DUP6 ADD PUSH2 0x43D JUMP JUMPDEST SWAP2 POP POP SWAP3 SWAP2 POP POP JUMP JUMPDEST PUSH0 DUP2 MLOAD SWAP1 POP SWAP2 SWAP1 POP JUMP JUMPDEST PUSH0 DUP3 DUP3 MSTORE PUSH1 0x20 DUP3 ADD SWAP1 POP SWAP3 SWAP2 POP POP JUMP JUMPDEST PUSH0 DUP2 SWAP1 POP PUSH1 0x20 DUP3 ADD SWAP1 POP SWAP2 SWAP1 POP JUMP JUMPDEST PUSH0 PUSH2 0x4E5 DUP4 DUP4 PUSH2 0x1A7 JUMP JUMPDEST PUSH1 0x20 DUP4 ADD SWAP1 POP SWAP3 SWAP2 POP POP JUMP JUMPDEST PUSH0 PUSH1 0x20 DUP3 ADD SWAP1 POP SWAP2 SWAP1 POP JUMP JUMPDEST PUSH0 PUSH2 0x507 DUP3 PUSH2 0x4B1 JUMP JUMPDEST PUSH2 0x511 DUP2 DUP6 PUSH2 0x4BB JUMP JUMPDEST SWAP4 POP PUSH2 0x51C DUP4 PUSH2 0x4CB JUMP JUMPDEST DUP1 PUSH0 JUMPDEST DUP4 DUP2 LT ISZERO PUSH2 0x54C JUMPI DUP2 MLOAD PUSH2 0x533 DUP9 DUP3 PUSH2 0x4DA JUMP JUMPDEST SWAP8 POP PUSH2 0x53E DUP4 PUSH2 0x4F1 JUMP JUMPDEST SWAP3 POP POP PUSH1 0x1 DUP2 ADD SWAP1 POP PUSH2 0x51F JUMP JUMPDEST POP DUP6 SWAP4 POP POP POP POP SWAP3 SWAP2 POP POP JUMP JUMPDEST PUSH0 PUSH1 0x20 DUP3 ADD SWAP1 POP DUP2 DUP2 SUB PUSH0 DUP4 ADD MSTORE PUSH2 0x571 DUP2 DUP5 PUSH2 0x4FD JUMP JUMPDEST SWAP1 POP SWAP3 SWAP2 POP POP JUMP INVALID LOG2 PUSH5 0x6970667358 0x22 SLT KECCAK256 CHAINID 0xAB 0xD0 JUMP 0xBD JUMPDEST 0x25 PUSH12 0x691B00B22E5C0B8538922D72 0xBD PC 0xDD 0x29 PUSH24 0xE42DA50AB1077464736F6C634300081A0033000000000000 "
				},
				"gasEstimates": {
					"creation": {
						"codeDepositCost": "291000",
						"executionCost": "329",
						"totalCost": "291329"
					},
					"external": {
						"arr(uint256)": "infinite",
						"f()": "infinite",
						"g(uint256[])": "infinite",
						"h(uint256[])": "470"
					},
					"internal": {
						"_f(uint256[] storage pointer,mapping(uint256 => address),struct DataLocations.MyStruct storage pointer)": "15"
					}
				},
				"methodIdentifiers": {
					"arr(uint256)": "71e5ee5f",
					"f()": "26121ff0",
					"g(uint256[])": "baf71609",
					"h(uint256[])": "40dcbb08"
				}
			},
			"storageLayout": {
				"storage": [
					{
						"astId": 4,
						"contract": "DataLocations.sol:DataLocations",
						"label": "arr",
						"offset": 0,
						"slot": "0",
						"type": "t_array(t_uint256)dyn_storage"
					},
					{
						"astId": 8,
						"contract": "DataLocations.sol:DataLocations",
						"label": "map",
						"offset": 0,
						"slot": "1",
						"type": "t_mapping(t_uint256,t_address)"
					},
					{
						"astId": 16,
						"contract": "DataLocations.sol:DataLocations",
						"label": "myStructs",
						"offset": 0,
						"slot": "2",
						"type": "t_mapping(t_uint256,t_struct(MyStruct)11_storage)"
					}
				],
				"types": {
					"t_address": {
						"encoding": "inplace",
						"label": "address",
						"numberOfBytes": "20"
					},
					"t_array(t_uint256)dyn_storage": {
						"base": "t_uint256",
						"encoding": "dynamic_array",
						"label": "uint256[]",
						"numberOfBytes": "32"
					},
					"t_mapping(t_uint256,t_address)": {
						"encoding": "mapping",
						"key": "t_uint256",
						"label": "mapping(uint256 => address)",
						"numberOfBytes": "32",
						"value": "t_address"
					},
					"t_mapping(t_uint256,t_struct(MyStruct)11_storage)": {
						"encoding": "mapping",
						"key": "t_uint256",
						"label": "mapping(uint256 => struct DataLocations.MyStruct)",
						"numberOfBytes": "32",
						"value": "t_struct(MyStruct)11_storage"
					},
					"t_struct(MyStruct)11_storage": {
						"encoding": "inplace",
						"label": "struct DataLocations.MyStruct",
						"members": [
							{
								"astId": 10,
								"contract": "DataLocations.sol:DataLocations",
								"label": "foo",
								"offset": 0,
								"slot": "0",
								"type": "t_uint256"
							}
						],
						"numberOfBytes": "32"
					},
					"t_uint256": {
						"encoding": "inplace",
						"label": "uint256",
						"numberOfBytes": "32"
					}
				}
			},
			"userdoc": {
				"kind": "user",
				"methods": {},
				"version": 1
			}
		}
	}
}